{
  "contractName": "BulletinBoard",
  "abi": [
    {
      "constant": true,
      "inputs": [
        {
          "name": "",
          "type": "uint256"
        }
      ],
      "name": "board",
      "outputs": [
        {
          "name": "",
          "type": "string"
        }
      ],
      "payable": false,
      "stateMutability": "view",
      "type": "function"
    },
    {
      "constant": true,
      "inputs": [],
      "name": "token",
      "outputs": [
        {
          "name": "",
          "type": "address"
        }
      ],
      "payable": false,
      "stateMutability": "view",
      "type": "function"
    },
    {
      "inputs": [
        {
          "name": "_token",
          "type": "address"
        }
      ],
      "payable": false,
      "stateMutability": "nonpayable",
      "type": "constructor"
    },
    {
      "constant": false,
      "inputs": [
        {
          "name": "_nftIdx",
          "type": "uint256"
        },
        {
          "name": "newText",
          "type": "string"
        }
      ],
      "name": "registerText",
      "outputs": [],
      "payable": false,
      "stateMutability": "nonpayable",
      "type": "function"
    }
  ],
  "bytecode": "0x608060405234801561001057600080fd5b5060405160208061062f8339810180604052602081101561003057600080fd5b810190808051906020019092919050505080600160006101000a81548173ffffffffffffffffffffffffffffffffffffffff021916908373ffffffffffffffffffffffffffffffffffffffff1602179055505061059d806100926000396000f3fe608060405260043610610057576000357c0100000000000000000000000000000000000000000000000000000000900463ffffffff16806328ed6e3f1461005c5780634bf1c0a014610110578063fc0c546a146101e2575b600080fd5b34801561006857600080fd5b506100956004803603602081101561007f57600080fd5b8101908080359060200190929190505050610239565b6040518080602001828103825283818151815260200191508051906020019080838360005b838110156100d55780820151818401526020810190506100ba565b50505050905090810190601f1680156101025780820380516001836020036101000a031916815260200191505b509250505060405180910390f35b34801561011c57600080fd5b506101e06004803603604081101561013357600080fd5b81019080803590602001909291908035906020019064010000000081111561015a57600080fd5b82018360208201111561016c57600080fd5b8035906020019184600183028401116401000000008311171561018e57600080fd5b91908080601f016020809104026020016040519081016040528093929190818152602001838380828437600081840152601f19601f8201169050808301925050505050505091929192905050506102e9565b005b3480156101ee57600080fd5b506101f76104a6565b604051808273ffffffffffffffffffffffffffffffffffffffff1673ffffffffffffffffffffffffffffffffffffffff16815260200191505060405180910390f35b60006020528060005260406000206000915090508054600181600116156101000203166002900480601f0160208091040260200160405190810160405280929190818152602001828054600181600116156101000203166002900480156102e15780601f106102b6576101008083540402835291602001916102e1565b820191906000526020600020905b8154815290600101906020018083116102c457829003601f168201915b505050505081565b3373ffffffffffffffffffffffffffffffffffffffff16600160009054906101000a900473ffffffffffffffffffffffffffffffffffffffff1673ffffffffffffffffffffffffffffffffffffffff16636352211e846040518263ffffffff167c01000000000000000000000000000000000000000000000000000000000281526004018082815260200191505060206040518083038186803b15801561038f57600080fd5b505afa1580156103a3573d6000803e3d6000fd5b505050506040513d60208110156103b957600080fd5b810190808051906020019092919050505073ffffffffffffffffffffffffffffffffffffffff1614151561047b576040517f08c379a000000000000000000000000000000000000000000000000000000000815260040180806020018281038252602a8152602001807f42756c6c6574696e426f6172643a206f6e6c7920746f6b656e206f776e65722081526020017f697320616c6c6f7765640000000000000000000000000000000000000000000081525060400191505060405180910390fd5b8060008084815260200190815260200160002090805190602001906104a19291906104cc565b505050565b600160009054906101000a900473ffffffffffffffffffffffffffffffffffffffff1681565b828054600181600116156101000203166002900490600052602060002090601f016020900481019282601f1061050d57805160ff191683800117855561053b565b8280016001018555821561053b579182015b8281111561053a57825182559160200191906001019061051f565b5b509050610548919061054c565b5090565b61056e91905b8082111561056a576000816000905550600101610552565b5090565b9056fea165627a7a72305820ed3b251001b5d48602e029e82b290d8a09a78d12cb8111a60a6bde97af5777200029",
  "source": "pragma solidity ^0.5.0;\n\nimport \"@openzeppelin/contracts/token/ERC721/IERC721.sol\";\n\ncontract BulletinBoard {\n    mapping (uint => string) public board;\n\n    IERC721 public token;\n\n    constructor (IERC721 _token) public {\n        token = _token;\n    }\n\n    function registerText(uint _nftIdx, string memory newText) public {\n        require(token.ownerOf(_nftIdx) == msg.sender, \"BulletinBoard: only token owner is allowed\");\n\n        board[_nftIdx] = newText;\n    }\n}\n",
  "sourcePath": "/Users/bruce/work/study/market/contracts/BulletinBoard.sol",
  "compiler": {
    "name": "solc",
    "version": "0.5.0+commit.1d4f565a.Linux.g++"
  },
  "schemaVersion": "3.0.12",
  "updatedAt": "2019-10-09T05:30:29.245Z",
  "devdoc": {
    "methods": {}
  },
  "userdoc": {
    "methods": {}
  }
}