{
  "contractName": "NFTMarket",
  "abi": [
    {
      "constant": true,
      "inputs": [
        {
          "name": "",
          "type": "uint256"
        }
      ],
      "name": "bidPrices",
      "outputs": [
        {
          "name": "",
          "type": "uint256"
        }
      ],
      "payable": false,
      "stateMutability": "view",
      "type": "function"
    },
    {
      "constant": true,
      "inputs": [],
      "name": "feePercent",
      "outputs": [
        {
          "name": "",
          "type": "uint256"
        }
      ],
      "payable": false,
      "stateMutability": "view",
      "type": "function"
    },
    {
      "constant": true,
      "inputs": [
        {
          "name": "",
          "type": "uint256"
        }
      ],
      "name": "bidders",
      "outputs": [
        {
          "name": "",
          "type": "address"
        }
      ],
      "payable": false,
      "stateMutability": "view",
      "type": "function"
    },
    {
      "constant": true,
      "inputs": [
        {
          "name": "",
          "type": "address"
        }
      ],
      "name": "pendingWithdrawals",
      "outputs": [
        {
          "name": "",
          "type": "uint256"
        }
      ],
      "payable": false,
      "stateMutability": "view",
      "type": "function"
    },
    {
      "constant": true,
      "inputs": [],
      "name": "token",
      "outputs": [
        {
          "name": "",
          "type": "address"
        }
      ],
      "payable": false,
      "stateMutability": "view",
      "type": "function"
    },
    {
      "inputs": [
        {
          "name": "_token",
          "type": "address"
        }
      ],
      "payable": false,
      "stateMutability": "nonpayable",
      "type": "constructor"
    },
    {
      "constant": false,
      "inputs": [
        {
          "name": "_feePercent",
          "type": "uint256"
        }
      ],
      "name": "changeFeePercent",
      "outputs": [],
      "payable": false,
      "stateMutability": "nonpayable",
      "type": "function"
    },
    {
      "constant": false,
      "inputs": [
        {
          "name": "_nftIdx",
          "type": "uint256"
        }
      ],
      "name": "bid",
      "outputs": [],
      "payable": true,
      "stateMutability": "payable",
      "type": "function"
    },
    {
      "constant": false,
      "inputs": [
        {
          "name": "_nftIdx",
          "type": "uint256"
        }
      ],
      "name": "sell",
      "outputs": [],
      "payable": false,
      "stateMutability": "nonpayable",
      "type": "function"
    },
    {
      "constant": false,
      "inputs": [],
      "name": "requestPendingWithdrawals",
      "outputs": [],
      "payable": false,
      "stateMutability": "nonpayable",
      "type": "function"
    }
  ],
  "bytecode": "0x608060405234801561001057600080fd5b50604051602080610ef08339810180604052602081101561003057600080fd5b810190808051906020019092919050505033600360006101000a81548173ffffffffffffffffffffffffffffffffffffffff021916908373ffffffffffffffffffffffffffffffffffffffff16021790555080600460006101000a81548173ffffffffffffffffffffffffffffffffffffffff021916908373ffffffffffffffffffffffffffffffffffffffff1602179055506005808190555050610e16806100da6000396000f3fe608060405260043610610099576000357c0100000000000000000000000000000000000000000000000000000000900463ffffffff16806309557c191461009e57806334eddf3e146100b5578063454a2ab3146100f05780637f89018a1461011e5780637fd6f15c1461016d578063cff29dfd14610198578063e4849b3214610213578063f3f437031461024e578063fc0c546a146102b3575b600080fd5b3480156100aa57600080fd5b506100b361030a565b005b3480156100c157600080fd5b506100ee600480360360208110156100d857600080fd5b8101908080359060200190929190505050610452565b005b61011c6004803603602081101561010657600080fd5b8101908080359060200190929190505050610521565b005b34801561012a57600080fd5b506101576004803603602081101561014157600080fd5b81019080803590602001909291905050506108f9565b6040518082815260200191505060405180910390f35b34801561017957600080fd5b50610182610911565b6040518082815260200191505060405180910390f35b3480156101a457600080fd5b506101d1600480360360208110156101bb57600080fd5b8101908080359060200190929190505050610917565b604051808273ffffffffffffffffffffffffffffffffffffffff1673ffffffffffffffffffffffffffffffffffffffff16815260200191505060405180910390f35b34801561021f57600080fd5b5061024c6004803603602081101561023657600080fd5b810190808035906020019092919050505061094a565b005b34801561025a57600080fd5b5061029d6004803603602081101561027157600080fd5b81019080803573ffffffffffffffffffffffffffffffffffffffff169060200190929190505050610d22565b6040518082815260200191505060405180910390f35b3480156102bf57600080fd5b506102c8610d3a565b604051808273ffffffffffffffffffffffffffffffffffffffff1673ffffffffffffffffffffffffffffffffffffffff16815260200191505060405180910390f35b6000600260003373ffffffffffffffffffffffffffffffffffffffff1673ffffffffffffffffffffffffffffffffffffffff168152602001908152602001600020541115156103c1576040517f08c379a00000000000000000000000000000000000000000000000000000000081526004018080602001828103825260208152602001807f4e46544d61726b65743a206e6f2070656e64696e675769746864726177616c7381525060200191505060405180910390fd5b600080600260003373ffffffffffffffffffffffffffffffffffffffff1673ffffffffffffffffffffffffffffffffffffffff16815260200190815260200160002081905590503373ffffffffffffffffffffffffffffffffffffffff166108fc829081150290604051600060405180830381858888f1935050505015801561044e573d6000803e3d6000fd5b5050565b600360009054906101000a900473ffffffffffffffffffffffffffffffffffffffff1673ffffffffffffffffffffffffffffffffffffffff163373ffffffffffffffffffffffffffffffffffffffff16141515610517576040517f08c379a00000000000000000000000000000000000000000000000000000000081526004018080602001828103825260208152602001807f4e46544d61726b65743a206f6e6c79206f776e657220697320616c6c6f77656481525060200191505060405180910390fd5b8060058190555050565b3373ffffffffffffffffffffffffffffffffffffffff16600460009054906101000a900473ffffffffffffffffffffffffffffffffffffffff1673ffffffffffffffffffffffffffffffffffffffff16636352211e836040518263ffffffff167c01000000000000000000000000000000000000000000000000000000000281526004018082815260200191505060206040518083038186803b1580156105c757600080fd5b505afa1580156105db573d6000803e3d6000fd5b505050506040513d60208110156105f157600080fd5b810190808051906020019092919050505073ffffffffffffffffffffffffffffffffffffffff16141515156106b4576040517f08c379a00000000000000000000000000000000000000000000000000000000081526004018080602001828103825260348152602001807f4e46544d61726b65743a20746f6b656e206f776e6572206973206e6f7420616c81526020017f6c6f77656420746f2062696420686973206f776e00000000000000000000000081525060400191505060405180910390fd5b600160008281526020019081526020016000205434111515610764576040517f08c379a00000000000000000000000000000000000000000000000000000000081526004018080602001828103825260368152602001807f4e46544d61726b65743a206269642070726963652073686f756c64206265206281526020017f6967676572207468616e2063757272656e74206f6e650000000000000000000081525060400191505060405180910390fd5b60006001600083815260200190815260200160002054111561088d5761081760016000838152602001908152602001600020546002600080600086815260200190815260200160002060009054906101000a900473ffffffffffffffffffffffffffffffffffffffff1673ffffffffffffffffffffffffffffffffffffffff1673ffffffffffffffffffffffffffffffffffffffff16815260200190815260200160002054610d6090919063ffffffff16565b6002600080600085815260200190815260200160002060009054906101000a900473ffffffffffffffffffffffffffffffffffffffff1673ffffffffffffffffffffffffffffffffffffffff1673ffffffffffffffffffffffffffffffffffffffff168152602001908152602001600020819055505b3360008083815260200190815260200160002060006101000a81548173ffffffffffffffffffffffffffffffffffffffff021916908373ffffffffffffffffffffffffffffffffffffffff16021790555034600160008381526020019081526020016000208190555050565b60016020528060005260406000206000915090505481565b60055481565b60006020528060005260406000206000915054906101000a900473ffffffffffffffffffffffffffffffffffffffff1681565b3373ffffffffffffffffffffffffffffffffffffffff16600460009054906101000a900473ffffffffffffffffffffffffffffffffffffffff1673ffffffffffffffffffffffffffffffffffffffff16636352211e836040518263ffffffff167c01000000000000000000000000000000000000000000000000000000000281526004018082815260200191505060206040518083038186803b1580156109f057600080fd5b505afa158015610a04573d6000803e3d6000fd5b505050506040513d6020811015610a1a57600080fd5b810190808051906020019092919050505073ffffffffffffffffffffffffffffffffffffffff16141515610adc576040517f08c379a00000000000000000000000000000000000000000000000000000000081526004018080602001828103825260388152602001807f4e46544d61726b65743a206f6e6c7920746f6b656e206f776e6572206973206181526020017f6c6c6f77656420746f2073656c6c2068697320746f6b656e000000000000000081525060400191505060405180910390fd5b600080600083815260200190815260200160002060009054906101000a900473ffffffffffffffffffffffffffffffffffffffff169050600060016000848152602001908152602001600020549050600060646005548302811515610b3d57fe5b04905060006001600086815260200190815260200160002081905550600460009054906101000a900473ffffffffffffffffffffffffffffffffffffffff1673ffffffffffffffffffffffffffffffffffffffff166323b872dd3385876040518463ffffffff167c0100000000000000000000000000000000000000000000000000000000028152600401808473ffffffffffffffffffffffffffffffffffffffff1673ffffffffffffffffffffffffffffffffffffffff1681526020018373ffffffffffffffffffffffffffffffffffffffff1673ffffffffffffffffffffffffffffffffffffffff1681526020018281526020019350505050600060405180830381600087803b158015610c5257600080fd5b505af1158015610c66573d6000803e3d6000fd5b50505050600360009054906101000a900473ffffffffffffffffffffffffffffffffffffffff1673ffffffffffffffffffffffffffffffffffffffff166108fc829081150290604051600060405180830381858888f19350505050158015610cd2573d6000803e3d6000fd5b503373ffffffffffffffffffffffffffffffffffffffff166108fc8284039081150290604051600060405180830381858888f19350505050158015610d1b573d6000803e3d6000fd5b5050505050565b60026020528060005260406000206000915090505481565b600460009054906101000a900473ffffffffffffffffffffffffffffffffffffffff1681565b6000808284019050838110151515610de0576040517f08c379a000000000000000000000000000000000000000000000000000000000815260040180806020018281038252601b8152602001807f536166654d6174683a206164646974696f6e206f766572666c6f77000000000081525060200191505060405180910390fd5b809150509291505056fea165627a7a72305820e2123823aca6ce88106f88651b2f195fbffeb7d75d27e3df975800663e2ead2c0029",
  "source": "pragma solidity ^0.5.0;\n\nimport \"@openzeppelin/contracts/token/ERC721/IERC721.sol\";\nimport \"@openzeppelin/contracts/math/SafeMath.sol\";\n\ncontract NFTMarket {\n    using SafeMath for uint256;\n\n    mapping (uint => address payable) public bidders;\n    mapping (uint => uint) public bidPrices;\n\n    mapping (address => uint) public pendingWithdrawals;\n\n    address payable owner;\n\n    IERC721 public token;\n    uint public feePercent;\n\n    constructor (IERC721 _token) public {\n        owner = msg.sender;\n        token = _token;\n        feePercent = 5; // 5%\n    }\n\n    modifier onlyOwner() {\n        require(msg.sender == owner, \"NFTMarket: only owner is allowed\");\n        _;\n    }\n\n    function changeFeePercent (uint _feePercent) public onlyOwner {\n        feePercent = _feePercent;\n    }\n\n    function bid(uint _nftIdx) public payable {\n        require(token.ownerOf(_nftIdx) != msg.sender, \"NFTMarket: token owner is not allowed to bid his own\");\n        require(msg.value > bidPrices[_nftIdx], \"NFTMarket: bid price should be bigger than current one\");\n\n        if (bidPrices[_nftIdx] > 0) {\n            pendingWithdrawals[bidders[_nftIdx]] = pendingWithdrawals[bidders[_nftIdx]].add(bidPrices[_nftIdx]);\n        }\n\n        bidders[_nftIdx] = msg.sender;\n        bidPrices[_nftIdx] = msg.value;\n    }\n\n    // sell을 하기전에 반드시 approve를 했어야 한다.\n    function sell(uint _nftIdx) public {\n        require(token.ownerOf(_nftIdx) == msg.sender, \"NFTMarket: only token owner is allowed to sell his token\");\n\n        address payable bidder = bidders[_nftIdx];\n        uint price = bidPrices[_nftIdx];\n\n        uint fee = (price*feePercent)/100;\n\n        bidPrices[_nftIdx] = 0;\n\n        token.transferFrom(msg.sender, bidder, _nftIdx);\n        owner.transfer(fee);\n        msg.sender.transfer(price-fee);\n    }\n\n    function requestPendingWithdrawals() public {\n        require(pendingWithdrawals[msg.sender] > 0, \"NFTMarket: no pendingWithdrawals\");\n        uint pendings = pendingWithdrawals[msg.sender] = 0;\n        msg.sender.transfer(pendings);\n    }\n}\n\n\n\n\n",
  "sourcePath": "/Users/bruce/work/study/market/contracts/NFTMarket.sol",
  "compiler": {
    "name": "solc",
    "version": "0.5.0+commit.1d4f565a.Linux.g++"
  },
  "schemaVersion": "3.0.12",
  "updatedAt": "2019-10-09T05:30:29.315Z",
  "devdoc": {
    "methods": {}
  },
  "userdoc": {
    "methods": {}
  }
}